{
  "_format": "hh-sol-artifact-1",
  "contractName": "OnchainSIP",
  "sourceName": "contracts/OnchainSIP.sol",
  "abi": [
    {
      "anonymous": false,
      "inputs": [
        {
          "indexed": true,
          "internalType": "address",
          "name": "user",
          "type": "address"
        },
        {
          "indexed": false,
          "internalType": "string",
          "name": "pool",
          "type": "string"
        },
        {
          "indexed": false,
          "internalType": "uint256",
          "name": "total",
          "type": "uint256"
        },
        {
          "indexed": false,
          "internalType": "uint256",
          "name": "intervalAmount",
          "type": "uint256"
        }
      ],
      "name": "PlanCreated",
      "type": "event"
    },
    {
      "anonymous": false,
      "inputs": [
        {
          "indexed": true,
          "internalType": "address",
          "name": "user",
          "type": "address"
        },
        {
          "indexed": false,
          "internalType": "string",
          "name": "pool",
          "type": "string"
        },
        {
          "indexed": false,
          "internalType": "uint256",
          "name": "amount",
          "type": "uint256"
        },
        {
          "indexed": false,
          "internalType": "uint256",
          "name": "time",
          "type": "uint256"
        }
      ],
      "name": "SIPExecuted",
      "type": "event"
    },
    {
      "anonymous": false,
      "inputs": [
        {
          "indexed": true,
          "internalType": "address",
          "name": "user",
          "type": "address"
        },
        {
          "indexed": false,
          "internalType": "string",
          "name": "pool",
          "type": "string"
        },
        {
          "indexed": false,
          "internalType": "uint256",
          "name": "remainingAmount",
          "type": "uint256"
        }
      ],
      "name": "SIPFinalized",
      "type": "event"
    },
    {
      "inputs": [
        {
          "internalType": "string",
          "name": "pool",
          "type": "string"
        },
        {
          "internalType": "address",
          "name": "token",
          "type": "address"
        },
        {
          "internalType": "uint256",
          "name": "totalAmount",
          "type": "uint256"
        },
        {
          "internalType": "uint256",
          "name": "amountPerInterval",
          "type": "uint256"
        },
        {
          "internalType": "uint256",
          "name": "frequency",
          "type": "uint256"
        },
        {
          "internalType": "uint256",
          "name": "maturity",
          "type": "uint256"
        },
        {
          "internalType": "address",
          "name": "destAddress",
          "type": "address"
        }
      ],
      "name": "createPlan",
      "outputs": [],
      "stateMutability": "nonpayable",
      "type": "function"
    },
    {
      "inputs": [
        {
          "internalType": "string",
          "name": "pool",
          "type": "string"
        },
        {
          "internalType": "uint256",
          "name": "amountPerInterval",
          "type": "uint256"
        },
        {
          "internalType": "uint256",
          "name": "frequency",
          "type": "uint256"
        },
        {
          "internalType": "uint256",
          "name": "maturity",
          "type": "uint256"
        },
        {
          "internalType": "address",
          "name": "destAddress",
          "type": "address"
        }
      ],
      "name": "createPlanWithNative",
      "outputs": [],
      "stateMutability": "payable",
      "type": "function"
    },
    {
      "inputs": [
        {
          "internalType": "string",
          "name": "pool",
          "type": "string"
        }
      ],
      "name": "executeSIP",
      "outputs": [],
      "stateMutability": "nonpayable",
      "type": "function"
    },
    {
      "inputs": [
        {
          "internalType": "string",
          "name": "pool",
          "type": "string"
        }
      ],
      "name": "finalizeSIP",
      "outputs": [],
      "stateMutability": "nonpayable",
      "type": "function"
    },
    {
      "inputs": [
        {
          "internalType": "address",
          "name": "user",
          "type": "address"
        },
        {
          "internalType": "string",
          "name": "pool",
          "type": "string"
        }
      ],
      "name": "getPlan",
      "outputs": [
        {
          "components": [
            {
              "internalType": "address",
              "name": "token",
              "type": "address"
            },
            {
              "internalType": "uint256",
              "name": "totalAmount",
              "type": "uint256"
            },
            {
              "internalType": "uint256",
              "name": "amountPerInterval",
              "type": "uint256"
            },
            {
              "internalType": "uint256",
              "name": "frequency",
              "type": "uint256"
            },
            {
              "internalType": "uint256",
              "name": "nextExecution",
              "type": "uint256"
            },
            {
              "internalType": "uint256",
              "name": "maturity",
              "type": "uint256"
            },
            {
              "internalType": "address",
              "name": "destAddress",
              "type": "address"
            },
            {
              "internalType": "uint256",
              "name": "executedAmount",
              "type": "uint256"
            },
            {
              "internalType": "bool",
              "name": "active",
              "type": "bool"
            }
          ],
          "internalType": "struct OnchainSIP.SIPPlan",
          "name": "",
          "type": "tuple"
        }
      ],
      "stateMutability": "view",
      "type": "function"
    },
    {
      "inputs": [
        {
          "internalType": "address",
          "name": "user",
          "type": "address"
        }
      ],
      "name": "getUserPoolCount",
      "outputs": [
        {
          "internalType": "uint256",
          "name": "",
          "type": "uint256"
        }
      ],
      "stateMutability": "view",
      "type": "function"
    },
    {
      "inputs": [
        {
          "internalType": "address",
          "name": "user",
          "type": "address"
        }
      ],
      "name": "getUserPoolNames",
      "outputs": [
        {
          "internalType": "string[]",
          "name": "",
          "type": "string[]"
        }
      ],
      "stateMutability": "view",
      "type": "function"
    },
    {
      "inputs": [
        {
          "internalType": "address",
          "name": "",
          "type": "address"
        },
        {
          "internalType": "string",
          "name": "",
          "type": "string"
        }
      ],
      "name": "userPlans",
      "outputs": [
        {
          "internalType": "address",
          "name": "token",
          "type": "address"
        },
        {
          "internalType": "uint256",
          "name": "totalAmount",
          "type": "uint256"
        },
        {
          "internalType": "uint256",
          "name": "amountPerInterval",
          "type": "uint256"
        },
        {
          "internalType": "uint256",
          "name": "frequency",
          "type": "uint256"
        },
        {
          "internalType": "uint256",
          "name": "nextExecution",
          "type": "uint256"
        },
        {
          "internalType": "uint256",
          "name": "maturity",
          "type": "uint256"
        },
        {
          "internalType": "address",
          "name": "destAddress",
          "type": "address"
        },
        {
          "internalType": "uint256",
          "name": "executedAmount",
          "type": "uint256"
        },
        {
          "internalType": "bool",
          "name": "active",
          "type": "bool"
        }
      ],
      "stateMutability": "view",
      "type": "function"
    },
    {
      "inputs": [
        {
          "internalType": "address",
          "name": "",
          "type": "address"
        },
        {
          "internalType": "uint256",
          "name": "",
          "type": "uint256"
        }
      ],
      "name": "userPoolNames",
      "outputs": [
        {
          "internalType": "string",
          "name": "",
          "type": "string"
        }
      ],
      "stateMutability": "view",
      "type": "function"
    },
    {
      "stateMutability": "payable",
      "type": "receive"
    }
  ],
  "bytecode": "0x608060405234801561001057600080fd5b50612a4c806100206000396000f3fe60806040526004361061008a5760003560e01c80639c701852116100595780639c7018521461017e578063b1af51fe146101a7578063bb60fb61146101d0578063e1dc1c041461020d578063e4f903f81461022957610091565b8063269603991461009657806358cb4552146100db5780635c566b2f146101185780638d4a81df1461015557610091565b3661009157005b600080fd5b3480156100a257600080fd5b506100bd60048036038101906100b89190611a36565b610266565b6040516100d299989796959493929190611ad5565b60405180910390f35b3480156100e757600080fd5b5061010260048036038101906100fd9190611b62565b610324565b60405161010f9190611cd0565b60405180910390f35b34801561012457600080fd5b5061013f600480360381019061013a9190611b62565b61043c565b60405161014c9190611cf2565b60405180910390f35b34801561016157600080fd5b5061017c60048036038101906101779190611d0d565b610488565b005b34801561018a57600080fd5b506101a560048036038101906101a09190611d0d565b6107a2565b005b3480156101b357600080fd5b506101ce60048036038101906101c99190611d82565b610b68565b005b3480156101dc57600080fd5b506101f760048036038101906101f29190611a36565b6110df565b6040516102049190611f24565b60405180910390f35b61022760048036038101906102229190611f40565b611258565b005b34801561023557600080fd5b50610250600480360381019061024b9190611fd7565b61174b565b60405161025d9190612061565b60405180910390f35b600060205281600052604060002081805160208101820180518482526020830160208501208183528095505050505050600091509150508060000160009054906101000a900473ffffffffffffffffffffffffffffffffffffffff16908060010154908060020154908060030154908060040154908060050154908060060160009054906101000a900473ffffffffffffffffffffffffffffffffffffffff16908060070154908060080160009054906101000a900460ff16905089565b6060600160008373ffffffffffffffffffffffffffffffffffffffff1673ffffffffffffffffffffffffffffffffffffffff168152602001908152602001600020805480602002602001604051908101604052809291908181526020016000905b828210156104315783829060005260206000200180546103a4906120b2565b80601f01602080910402602001604051908101604052809291908181526020018280546103d0906120b2565b801561041d5780601f106103f25761010080835404028352916020019161041d565b820191906000526020600020905b81548152906001019060200180831161040057829003601f168201915b505050505081526020019060010190610385565b505050509050919050565b6000600160008373ffffffffffffffffffffffffffffffffffffffff1673ffffffffffffffffffffffffffffffffffffffff168152602001908152602001600020805490509050919050565b60008060003373ffffffffffffffffffffffffffffffffffffffff1673ffffffffffffffffffffffffffffffffffffffff168152602001908152602001600020826040516104d6919061211f565b908152602001604051809103902090508060080160009054906101000a900460ff16610537576040517f08c379a000000000000000000000000000000000000000000000000000000000815260040161052e90612182565b60405180910390fd5b806005015442101561057e576040517f08c379a0000000000000000000000000000000000000000000000000000000008152600401610575906121ee565b60405180910390fd5b600081600701548260010154610594919061223d565b9050600081111561073057600073ffffffffffffffffffffffffffffffffffffffff168260000160009054906101000a900473ffffffffffffffffffffffffffffffffffffffff1673ffffffffffffffffffffffffffffffffffffffff1603610667578160060160009054906101000a900473ffffffffffffffffffffffffffffffffffffffff1673ffffffffffffffffffffffffffffffffffffffff166108fc829081150290604051600060405180830381858888f19350505050158015610661573d6000803e3d6000fd5b5061072f565b8160000160009054906101000a900473ffffffffffffffffffffffffffffffffffffffff1673ffffffffffffffffffffffffffffffffffffffff1663a9059cbb8360060160009054906101000a900473ffffffffffffffffffffffffffffffffffffffff16836040518363ffffffff1660e01b81526004016106ea929190612271565b6020604051808303816000875af1158015610709573d6000803e3d6000fd5b505050506040513d601f19601f8201168201806040525081019061072d91906122c6565b505b5b60008260080160006101000a81548160ff0219169083151502179055503373ffffffffffffffffffffffffffffffffffffffff167f66e36758d41ded8f2c95ad644d556ae54da53d52a680324e8bcc39604b9a1b8a84836040516107959291906122f3565b60405180910390a2505050565b60008060003373ffffffffffffffffffffffffffffffffffffffff1673ffffffffffffffffffffffffffffffffffffffff168152602001908152602001600020826040516107f0919061211f565b908152602001604051809103902090508060080160009054906101000a900460ff16610851576040517f08c379a000000000000000000000000000000000000000000000000000000000815260040161084890612182565b60405180910390fd5b8060040154421015610898576040517f08c379a000000000000000000000000000000000000000000000000000000000815260040161088f9061236f565b60405180910390fd5b806005015442106108de576040517f08c379a00000000000000000000000000000000000000000000000000000000081526004016108d5906123db565b60405180910390fd5b8060010154816002015482600701546108f791906123fb565b1115610938576040517f08c379a000000000000000000000000000000000000000000000000000000000815260040161092f9061247b565b60405180910390fd5b806002015481600701600082825461095091906123fb565b92505081905550806003015481600401600082825461096f91906123fb565b92505081905550600073ffffffffffffffffffffffffffffffffffffffff168160000160009054906101000a900473ffffffffffffffffffffffffffffffffffffffff1673ffffffffffffffffffffffffffffffffffffffff1603610a42578060060160009054906101000a900473ffffffffffffffffffffffffffffffffffffffff1673ffffffffffffffffffffffffffffffffffffffff166108fc82600201549081150290604051600060405180830381858888f19350505050158015610a3c573d6000803e3d6000fd5b50610b0e565b8060000160009054906101000a900473ffffffffffffffffffffffffffffffffffffffff1673ffffffffffffffffffffffffffffffffffffffff1663a9059cbb8260060160009054906101000a900473ffffffffffffffffffffffffffffffffffffffff1683600201546040518363ffffffff1660e01b8152600401610ac9929190612271565b6020604051808303816000875af1158015610ae8573d6000803e3d6000fd5b505050506040513d601f19601f82011682018060405250810190610b0c91906122c6565b505b3373ffffffffffffffffffffffffffffffffffffffff167f93bda7f33b44f5cf749215d10244c31bd281fd30e6121fe5413000cb536555ce83836002015442604051610b5c9392919061249b565b60405180910390a25050565b68056bc75e2d63100000851015610bb4576040517f08c379a0000000000000000000000000000000000000000000000000000000008152600401610bab90612525565b60405180910390fd5b6729a2241af62c0000841015610bff576040517f08c379a0000000000000000000000000000000000000000000000000000000008152600401610bf690612591565b60405180910390fd5b814210610c41576040517f08c379a0000000000000000000000000000000000000000000000000000000008152600401610c38906125fd565b60405180910390fd5b6000803373ffffffffffffffffffffffffffffffffffffffff1673ffffffffffffffffffffffffffffffffffffffff16815260200190815260200160002087604051610c8d919061211f565b908152602001604051809103902060080160009054906101000a900460ff1615610cec576040517f08c379a0000000000000000000000000000000000000000000000000000000008152600401610ce390612669565b60405180910390fd5b8573ffffffffffffffffffffffffffffffffffffffff166323b872dd3330886040518463ffffffff1660e01b8152600401610d2993929190612689565b6020604051808303816000875af1158015610d48573d6000803e3d6000fd5b505050506040513d601f19601f82011682018060405250810190610d6c91906122c6565b506040518061012001604052808773ffffffffffffffffffffffffffffffffffffffff1681526020018681526020018581526020018481526020018442610db391906123fb565b81526020018381526020018273ffffffffffffffffffffffffffffffffffffffff16815260200160008152602001600115158152506000803373ffffffffffffffffffffffffffffffffffffffff1673ffffffffffffffffffffffffffffffffffffffff16815260200190815260200160002088604051610e34919061211f565b908152602001604051809103902060008201518160000160006101000a81548173ffffffffffffffffffffffffffffffffffffffff021916908373ffffffffffffffffffffffffffffffffffffffff1602179055506020820151816001015560408201518160020155606082015181600301556080820151816004015560a0820151816005015560c08201518160060160006101000a81548173ffffffffffffffffffffffffffffffffffffffff021916908373ffffffffffffffffffffffffffffffffffffffff16021790555060e082015181600701556101008201518160080160006101000a81548160ff021916908315150217905550905050600260003373ffffffffffffffffffffffffffffffffffffffff1673ffffffffffffffffffffffffffffffffffffffff16815260200190815260200160002087604051610f7d919061211f565b908152602001604051809103902060009054906101000a900460ff1661108457600160003373ffffffffffffffffffffffffffffffffffffffff1673ffffffffffffffffffffffffffffffffffffffff1681526020019081526020016000208790806001815401808255809150506001900390600052602060002001600090919091909150908161100e919061286c565b506001600260003373ffffffffffffffffffffffffffffffffffffffff1673ffffffffffffffffffffffffffffffffffffffff1681526020019081526020016000208860405161105e919061211f565b908152602001604051809103902060006101000a81548160ff0219169083151502179055505b3373ffffffffffffffffffffffffffffffffffffffff167f556a0bebba476da0fa3492879f700767ff831ebd9881db3bc2f077544d0c97f78887876040516110ce9392919061249b565b60405180910390a250505050505050565b6110e7611804565b6000808473ffffffffffffffffffffffffffffffffffffffff1673ffffffffffffffffffffffffffffffffffffffff16815260200190815260200160002082604051611133919061211f565b9081526020016040518091039020604051806101200160405290816000820160009054906101000a900473ffffffffffffffffffffffffffffffffffffffff1673ffffffffffffffffffffffffffffffffffffffff1673ffffffffffffffffffffffffffffffffffffffff16815260200160018201548152602001600282015481526020016003820154815260200160048201548152602001600582015481526020016006820160009054906101000a900473ffffffffffffffffffffffffffffffffffffffff1673ffffffffffffffffffffffffffffffffffffffff1673ffffffffffffffffffffffffffffffffffffffff168152602001600782015481526020016008820160009054906101000a900460ff161515151581525050905092915050565b6702c68af0bb1400003410156112a3576040517f08c379a000000000000000000000000000000000000000000000000000000000815260040161129a9061298a565b60405180910390fd5b661550f7dca700008410156112ed576040517f08c379a00000000000000000000000000000000000000000000000000000000081526004016112e4906129f6565b60405180910390fd5b81421061132f576040517f08c379a0000000000000000000000000000000000000000000000000000000008152600401611326906125fd565b60405180910390fd5b6000803373ffffffffffffffffffffffffffffffffffffffff1673ffffffffffffffffffffffffffffffffffffffff1681526020019081526020016000208560405161137b919061211f565b908152602001604051809103902060080160009054906101000a900460ff16156113da576040517f08c379a00000000000000000000000000000000000000000000000000000000081526004016113d190612669565b60405180910390fd5b604051806101200160405280600073ffffffffffffffffffffffffffffffffffffffff168152602001348152602001858152602001848152602001844261142191906123fb565b81526020018381526020018273ffffffffffffffffffffffffffffffffffffffff16815260200160008152602001600115158152506000803373ffffffffffffffffffffffffffffffffffffffff1673ffffffffffffffffffffffffffffffffffffffff168152602001908152602001600020866040516114a2919061211f565b908152602001604051809103902060008201518160000160006101000a81548173ffffffffffffffffffffffffffffffffffffffff021916908373ffffffffffffffffffffffffffffffffffffffff1602179055506020820151816001015560408201518160020155606082015181600301556080820151816004015560a0820151816005015560c08201518160060160006101000a81548173ffffffffffffffffffffffffffffffffffffffff021916908373ffffffffffffffffffffffffffffffffffffffff16021790555060e082015181600701556101008201518160080160006101000a81548160ff021916908315150217905550905050600260003373ffffffffffffffffffffffffffffffffffffffff1673ffffffffffffffffffffffffffffffffffffffff168152602001908152602001600020856040516115eb919061211f565b908152602001604051809103902060009054906101000a900460ff166116f257600160003373ffffffffffffffffffffffffffffffffffffffff1673ffffffffffffffffffffffffffffffffffffffff1681526020019081526020016000208590806001815401808255809150506001900390600052602060002001600090919091909150908161167c919061286c565b506001600260003373ffffffffffffffffffffffffffffffffffffffff1673ffffffffffffffffffffffffffffffffffffffff168152602001908152602001600020866040516116cc919061211f565b908152602001604051809103902060006101000a81548160ff0219169083151502179055505b3373ffffffffffffffffffffffffffffffffffffffff167f556a0bebba476da0fa3492879f700767ff831ebd9881db3bc2f077544d0c97f786348760405161173c9392919061249b565b60405180910390a25050505050565b6001602052816000526040600020818154811061176757600080fd5b90600052602060002001600091509150508054611783906120b2565b80601f01602080910402602001604051908101604052809291908181526020018280546117af906120b2565b80156117fc5780601f106117d1576101008083540402835291602001916117fc565b820191906000526020600020905b8154815290600101906020018083116117df57829003601f168201915b505050505081565b604051806101200160405280600073ffffffffffffffffffffffffffffffffffffffff1681526020016000815260200160008152602001600081526020016000815260200160008152602001600073ffffffffffffffffffffffffffffffffffffffff168152602001600081526020016000151581525090565b6000604051905090565b600080fd5b600080fd5b600073ffffffffffffffffffffffffffffffffffffffff82169050919050565b60006118bd82611892565b9050919050565b6118cd816118b2565b81146118d857600080fd5b50565b6000813590506118ea816118c4565b92915050565b600080fd5b600080fd5b6000601f19601f8301169050919050565b7f4e487b7100000000000000000000000000000000000000000000000000000000600052604160045260246000fd5b611943826118fa565b810181811067ffffffffffffffff821117156119625761196161190b565b5b80604052505050565b600061197561187e565b9050611981828261193a565b919050565b600067ffffffffffffffff8211156119a1576119a061190b565b5b6119aa826118fa565b9050602081019050919050565b82818337600083830152505050565b60006119d96119d484611986565b61196b565b9050828152602081018484840111156119f5576119f46118f5565b5b611a008482856119b7565b509392505050565b600082601f830112611a1d57611a1c6118f0565b5b8135611a2d8482602086016119c6565b91505092915050565b60008060408385031215611a4d57611a4c611888565b5b6000611a5b858286016118db565b925050602083013567ffffffffffffffff811115611a7c57611a7b61188d565b5b611a8885828601611a08565b9150509250929050565b611a9b816118b2565b82525050565b6000819050919050565b611ab481611aa1565b82525050565b60008115159050919050565b611acf81611aba565b82525050565b600061012082019050611aeb600083018c611a92565b611af8602083018b611aab565b611b05604083018a611aab565b611b126060830189611aab565b611b1f6080830188611aab565b611b2c60a0830187611aab565b611b3960c0830186611a92565b611b4660e0830185611aab565b611b54610100830184611ac6565b9a9950505050505050505050565b600060208284031215611b7857611b77611888565b5b6000611b86848285016118db565b91505092915050565b600081519050919050565b600082825260208201905092915050565b6000819050602082019050919050565b600081519050919050565b600082825260208201905092915050565b60005b83811015611bf5578082015181840152602081019050611bda565b60008484015250505050565b6000611c0c82611bbb565b611c168185611bc6565b9350611c26818560208601611bd7565b611c2f816118fa565b840191505092915050565b6000611c468383611c01565b905092915050565b6000602082019050919050565b6000611c6682611b8f565b611c708185611b9a565b935083602082028501611c8285611bab565b8060005b85811015611cbe5784840389528151611c9f8582611c3a565b9450611caa83611c4e565b925060208a01995050600181019050611c86565b50829750879550505050505092915050565b60006020820190508181036000830152611cea8184611c5b565b905092915050565b6000602082019050611d076000830184611aab565b92915050565b600060208284031215611d2357611d22611888565b5b600082013567ffffffffffffffff811115611d4157611d4061188d565b5b611d4d84828501611a08565b91505092915050565b611d5f81611aa1565b8114611d6a57600080fd5b50565b600081359050611d7c81611d56565b92915050565b600080600080600080600060e0888a031215611da157611da0611888565b5b600088013567ffffffffffffffff811115611dbf57611dbe61188d565b5b611dcb8a828b01611a08565b9750506020611ddc8a828b016118db565b9650506040611ded8a828b01611d6d565b9550506060611dfe8a828b01611d6d565b9450506080611e0f8a828b01611d6d565b93505060a0611e208a828b01611d6d565b92505060c0611e318a828b016118db565b91505092959891949750929550565b611e49816118b2565b82525050565b611e5881611aa1565b82525050565b611e6781611aba565b82525050565b61012082016000820151611e846000850182611e40565b506020820151611e976020850182611e4f565b506040820151611eaa6040850182611e4f565b506060820151611ebd6060850182611e4f565b506080820151611ed06080850182611e4f565b5060a0820151611ee360a0850182611e4f565b5060c0820151611ef660c0850182611e40565b5060e0820151611f0960e0850182611e4f565b50610100820151611f1e610100850182611e5e565b50505050565b600061012082019050611f3a6000830184611e6d565b92915050565b600080600080600060a08688031215611f5c57611f5b611888565b5b600086013567ffffffffffffffff811115611f7a57611f7961188d565b5b611f8688828901611a08565b9550506020611f9788828901611d6d565b9450506040611fa888828901611d6d565b9350506060611fb988828901611d6d565b9250506080611fca888289016118db565b9150509295509295909350565b60008060408385031215611fee57611fed611888565b5b6000611ffc858286016118db565b925050602061200d85828601611d6d565b9150509250929050565b600082825260208201905092915050565b600061203382611bbb565b61203d8185612017565b935061204d818560208601611bd7565b612056816118fa565b840191505092915050565b6000602082019050818103600083015261207b8184612028565b905092915050565b7f4e487b7100000000000000000000000000000000000000000000000000000000600052602260045260246000fd5b600060028204905060018216806120ca57607f821691505b6020821081036120dd576120dc612083565b5b50919050565b600081905092915050565b60006120f982611bbb565b61210381856120e3565b9350612113818560208601611bd7565b80840191505092915050565b600061212b82846120ee565b915081905092915050565b7f4e6f206163746976652053495000000000000000000000000000000000000000600082015250565b600061216c600d83612017565b915061217782612136565b602082019050919050565b6000602082019050818103600083015261219b8161215f565b9050919050565b7f4e6f74206d617475726564000000000000000000000000000000000000000000600082015250565b60006121d8600b83612017565b91506121e3826121a2565b602082019050919050565b60006020820190508181036000830152612207816121cb565b9050919050565b7f4e487b7100000000000000000000000000000000000000000000000000000000600052601160045260246000fd5b600061224882611aa1565b915061225383611aa1565b925082820390508181111561226b5761226a61220e565b5b92915050565b60006040820190506122866000830185611a92565b6122936020830184611aab565b9392505050565b6122a381611aba565b81146122ae57600080fd5b50565b6000815190506122c08161229a565b92915050565b6000602082840312156122dc576122db611888565b5b60006122ea848285016122b1565b91505092915050565b6000604082019050818103600083015261230d8185612028565b905061231c6020830184611aab565b9392505050565b7f546f6f206561726c790000000000000000000000000000000000000000000000600082015250565b6000612359600983612017565b915061236482612323565b602082019050919050565b600060208201905081810360008301526123888161234c565b9050919050565b7f4d61747572656400000000000000000000000000000000000000000000000000600082015250565b60006123c5600783612017565b91506123d08261238f565b602082019050919050565b600060208201905081810360008301526123f4816123b8565b9050919050565b600061240682611aa1565b915061241183611aa1565b92508282019050808211156124295761242861220e565b5b92915050565b7f416c6c2066756e64732075736564000000000000000000000000000000000000600082015250565b6000612465600e83612017565b91506124708261242f565b602082019050919050565b6000602082019050818103600083015261249481612458565b9050919050565b600060608201905081810360008301526124b58186612028565b90506124c46020830185611aab565b6124d16040830184611aab565b949350505050565b7f4d696e696d756d20746f74616c20616d6f756e74206973202431303000000000600082015250565b600061250f601c83612017565b915061251a826124d9565b602082019050919050565b6000602082019050818103600083015261253e81612502565b9050919050565b7f4d696e696d756d20696e74657276616c20616d6f756e74206973202433000000600082015250565b600061257b601d83612017565b915061258682612545565b602082019050919050565b600060208201905081810360008301526125aa8161256e565b9050919050565b7f4d61747572697479206d75737420626520696e20667574757265000000000000600082015250565b60006125e7601a83612017565b91506125f2826125b1565b602082019050919050565b60006020820190508181036000830152612616816125da565b9050919050565b7f53495020616c7265616479206578697374730000000000000000000000000000600082015250565b6000612653601283612017565b915061265e8261261d565b602082019050919050565b6000602082019050818103600083015261268281612646565b9050919050565b600060608201905061269e6000830186611a92565b6126ab6020830185611a92565b6126b86040830184611aab565b949350505050565b60008190508160005260206000209050919050565b60006020601f8301049050919050565b600082821b905092915050565b6000600883026127227fffffffffffffffffffffffffffffffffffffffffffffffffffffffffffffffff826126e5565b61272c86836126e5565b95508019841693508086168417925050509392505050565b6000819050919050565b600061276961276461275f84611aa1565b612744565b611aa1565b9050919050565b6000819050919050565b6127838361274e565b61279761278f82612770565b8484546126f2565b825550505050565b600090565b6127ac61279f565b6127b781848461277a565b505050565b5b818110156127db576127d06000826127a4565b6001810190506127bd565b5050565b601f821115612820576127f1816126c0565b6127fa846126d5565b81016020851015612809578190505b61281d612815856126d5565b8301826127bc565b50505b505050565b600082821c905092915050565b600061284360001984600802612825565b1980831691505092915050565b600061285c8383612832565b9150826002028217905092915050565b61287582611bbb565b67ffffffffffffffff81111561288e5761288d61190b565b5b61289882546120b2565b6128a38282856127df565b600060209050601f8311600181146128d657600084156128c4578287015190505b6128ce8582612850565b865550612936565b601f1984166128e4866126c0565b60005b8281101561290c578489015182556001820191506020850194506020810190506128e7565b868310156129295784890151612925601f891682612832565b8355505b6001600288020188555050505b505050505050565b7f4d696e696d756d20746f74616c20697320302e32204156415800000000000000600082015250565b6000612974601983612017565b915061297f8261293e565b602082019050919050565b600060208201905081810360008301526129a381612967565b9050919050565b7f496e74657276616c20746f6f20736d616c6c0000000000000000000000000000600082015250565b60006129e0601283612017565b91506129eb826129aa565b602082019050919050565b60006020820190508181036000830152612a0f816129d3565b905091905056fea2646970667358221220988a69db815b932953c6b24afdacf0d67440b12db59d75b7bf25d9587e66d2f664736f6c63430008140033",
  "linkReferences": {},
  "deployedLinkReferences": {}
}